{
  "_format": "hh-sol-artifact-1",
  "contractName": "MessagingPlatform",
  "sourceName": "contracts/MessagingPlatform.sol",
  "abi": [
    {
      "inputs": [
        {
          "internalType": "string",
          "name": "_message",
          "type": "string"
        }
      ],
      "stateMutability": "nonpayable",
      "type": "constructor"
    },
    {
      "inputs": [],
      "name": "getSentMessages",
      "outputs": [
        {
          "internalType": "bytes32[]",
          "name": "",
          "type": "bytes32[]"
        }
      ],
      "stateMutability": "view",
      "type": "function"
    },
    {
      "inputs": [
        {
          "internalType": "bytes32",
          "name": "",
          "type": "bytes32"
        }
      ],
      "name": "messages",
      "outputs": [
        {
          "internalType": "address",
          "name": "sender",
          "type": "address"
        },
        {
          "internalType": "string",
          "name": "recipient",
          "type": "string"
        },
        {
          "internalType": "string",
          "name": "content",
          "type": "string"
        },
        {
          "internalType": "uint256",
          "name": "timestamp",
          "type": "uint256"
        }
      ],
      "stateMutability": "view",
      "type": "function"
    },
    {
      "inputs": [
        {
          "internalType": "string",
          "name": "_reciever",
          "type": "string"
        },
        {
          "internalType": "string",
          "name": "_message",
          "type": "string"
        }
      ],
      "name": "sendMessage",
      "outputs": [],
      "stateMutability": "nonpayable",
      "type": "function"
    },
    {
      "inputs": [
        {
          "internalType": "address",
          "name": "",
          "type": "address"
        },
        {
          "internalType": "uint256",
          "name": "",
          "type": "uint256"
        }
      ],
      "name": "sentMessages",
      "outputs": [
        {
          "internalType": "bytes32",
          "name": "",
          "type": "bytes32"
        }
      ],
      "stateMutability": "view",
      "type": "function"
    }
  ],
  "bytecode": "0x60806040523480156200001157600080fd5b506040516200119f3803806200119f83398181016040528101906200003791906200029c565b620000826040518060400160405280600881526020017f66696e6973686564000000000000000000000000000000000000000000000000815250620000a260201b620004881760201c565b80600090805190602001906200009a9291906200016e565b5050620004f2565b6200014281604051602401620000b991906200032e565b6040516020818303038152906040527f41304fac000000000000000000000000000000000000000000000000000000007bffffffffffffffffffffffffffffffffffffffffffffffffffffffff19166020820180517bffffffffffffffffffffffffffffffffffffffffffffffffffffffff83818316178352505050506200014560201b60201c565b50565b60008151905060006a636f6e736f6c652e6c6f679050602083016000808483855afa5050505050565b8280546200017c9062000403565b90600052602060002090601f016020900481019282620001a05760008555620001ec565b82601f10620001bb57805160ff1916838001178555620001ec565b82800160010185558215620001ec579182015b82811115620001eb578251825591602001919060010190620001ce565b5b509050620001fb9190620001ff565b5090565b5b808211156200021a57600081600090555060010162000200565b5090565b6000620002356200022f846200037b565b62000352565b905082815260208101848484011115620002545762000253620004d2565b5b62000261848285620003cd565b509392505050565b600082601f830112620002815762000280620004cd565b5b8151620002938482602086016200021e565b91505092915050565b600060208284031215620002b557620002b4620004dc565b5b600082015167ffffffffffffffff811115620002d657620002d5620004d7565b5b620002e48482850162000269565b91505092915050565b6000620002fa82620003b1565b620003068185620003bc565b935062000318818560208601620003cd565b6200032381620004e1565b840191505092915050565b600060208201905081810360008301526200034a8184620002ed565b905092915050565b60006200035e62000371565b90506200036c828262000439565b919050565b6000604051905090565b600067ffffffffffffffff8211156200039957620003986200049e565b5b620003a482620004e1565b9050602081019050919050565b600081519050919050565b600082825260208201905092915050565b60005b83811015620003ed578082015181840152602081019050620003d0565b83811115620003fd576000848401525b50505050565b600060028204905060018216806200041c57607f821691505b602082108114156200043357620004326200046f565b5b50919050565b6200044482620004e1565b810181811067ffffffffffffffff821117156200046657620004656200049e565b5b80604052505050565b7f4e487b7100000000000000000000000000000000000000000000000000000000600052602260045260246000fd5b7f4e487b7100000000000000000000000000000000000000000000000000000000600052604160045260246000fd5b600080fd5b600080fd5b600080fd5b600080fd5b6000601f19601f8301169050919050565b610c9d80620005026000396000f3fe608060405234801561001057600080fd5b506004361061004c5760003560e01c80631a35e5c0146100515780632bbd59ca14610081578063467fba0f146100b4578063e9f593f4146100d0575b600080fd5b61006b6004803603810190610066919061069c565b6100ee565b6040516100789190610986565b60405180910390f35b61009b600480360381019061009691906106dc565b61011f565b6040516100ab9493929190610911565b60405180910390f35b6100ce60048036038101906100c99190610709565b61027f565b005b6100d86103f3565b6040516100e59190610964565b60405180910390f35b6002602052816000526040600020818154811061010a57600080fd5b90600052602060002001600091509150505481565b60016020528060005260406000206000915090508060000160009054906101000a900473ffffffffffffffffffffffffffffffffffffffff169080600101805461016890610b01565b80601f016020809104026020016040519081016040528092919081815260200182805461019490610b01565b80156101e15780601f106101b6576101008083540402835291602001916101e1565b820191906000526020600020905b8154815290600101906020018083116101c457829003601f168201915b5050505050908060020180546101f690610b01565b80601f016020809104026020016040519081016040528092919081815260200182805461022290610b01565b801561026f5780601f106102445761010080835404028352916020019161026f565b820191906000526020600020905b81548152906001019060200180831161025257829003601f168201915b5050505050908060030154905084565b60003383834260405160200161029894939291906108cb565b60405160208183030381529060405280519060200120905060405180608001604052803373ffffffffffffffffffffffffffffffffffffffff168152602001848152602001838152602001428152506001600083815260200190815260200160002060008201518160000160006101000a81548173ffffffffffffffffffffffffffffffffffffffff021916908373ffffffffffffffffffffffffffffffffffffffff160217905550602082015181600101908051906020019061035d92919061054a565b50604082015181600201908051906020019061037a92919061054a565b5060608201518160030155905050600260003373ffffffffffffffffffffffffffffffffffffffff1673ffffffffffffffffffffffffffffffffffffffff168152602001908152602001600020819080600181540180825580915050600190039060005260206000200160009091909190915055505050565b6060600260003373ffffffffffffffffffffffffffffffffffffffff1673ffffffffffffffffffffffffffffffffffffffff16815260200190815260200160002080548060200260200160405190810160405280929190818152602001828054801561047e57602002820191906000526020600020905b81548152602001906001019080831161046a575b5050505050905090565b61051e8160405160240161049c91906109a1565b6040516020818303038152906040527f41304fac000000000000000000000000000000000000000000000000000000007bffffffffffffffffffffffffffffffffffffffffffffffffffffffff19166020820180517bffffffffffffffffffffffffffffffffffffffffffffffffffffffff8381831617835250505050610521565b50565b60008151905060006a636f6e736f6c652e6c6f679050602083016000808483855afa5050505050565b82805461055690610b01565b90600052602060002090601f01602090048101928261057857600085556105bf565b82601f1061059157805160ff19168380011785556105bf565b828001600101855582156105bf579182015b828111156105be5782518255916020019190600101906105a3565b5b5090506105cc91906105d0565b5090565b5b808211156105e95760008160009055506001016105d1565b5090565b60006106006105fb846109e8565b6109c3565b90508281526020810184848401111561061c5761061b610bf5565b5b610627848285610abf565b509392505050565b60008135905061063e81610c22565b92915050565b60008135905061065381610c39565b92915050565b600082601f83011261066e5761066d610bf0565b5b813561067e8482602086016105ed565b91505092915050565b60008135905061069681610c50565b92915050565b600080604083850312156106b3576106b2610bff565b5b60006106c18582860161062f565b92505060206106d285828601610687565b9150509250929050565b6000602082840312156106f2576106f1610bff565b5b600061070084828501610644565b91505092915050565b600080604083850312156107205761071f610bff565b5b600083013567ffffffffffffffff81111561073e5761073d610bfa565b5b61074a85828601610659565b925050602083013567ffffffffffffffff81111561076b5761076a610bfa565b5b61077785828601610659565b9150509250929050565b600061078d838361081d565b60208301905092915050565b6107a281610a79565b82525050565b6107b96107b482610a79565b610b64565b82525050565b60006107ca82610a29565b6107d48185610a4c565b93506107df83610a19565b8060005b838110156108105781516107f78882610781565b975061080283610a3f565b9250506001810190506107e3565b5085935050505092915050565b61082681610a8b565b82525050565b61083581610a8b565b82525050565b600061084682610a34565b6108508185610a5d565b9350610860818560208601610ace565b61086981610c04565b840191505092915050565b600061087f82610a34565b6108898185610a6e565b9350610899818560208601610ace565b80840191505092915050565b6108ae81610ab5565b82525050565b6108c56108c082610ab5565b610b88565b82525050565b60006108d782876107a8565b6014820191506108e78286610874565b91506108f38285610874565b91506108ff82846108b4565b60208201915081905095945050505050565b60006080820190506109266000830187610799565b8181036020830152610938818661083b565b9050818103604083015261094c818561083b565b905061095b60608301846108a5565b95945050505050565b6000602082019050818103600083015261097e81846107bf565b905092915050565b600060208201905061099b600083018461082c565b92915050565b600060208201905081810360008301526109bb818461083b565b905092915050565b60006109cd6109de565b90506109d98282610b33565b919050565b6000604051905090565b600067ffffffffffffffff821115610a0357610a02610bc1565b5b610a0c82610c04565b9050602081019050919050565b6000819050602082019050919050565b600081519050919050565b600081519050919050565b6000602082019050919050565b600082825260208201905092915050565b600082825260208201905092915050565b600081905092915050565b6000610a8482610a95565b9050919050565b6000819050919050565b600073ffffffffffffffffffffffffffffffffffffffff82169050919050565b6000819050919050565b82818337600083830152505050565b60005b83811015610aec578082015181840152602081019050610ad1565b83811115610afb576000848401525b50505050565b60006002820490506001821680610b1957607f821691505b60208210811415610b2d57610b2c610b92565b5b50919050565b610b3c82610c04565b810181811067ffffffffffffffff82111715610b5b57610b5a610bc1565b5b80604052505050565b6000610b6f82610b76565b9050919050565b6000610b8182610c15565b9050919050565b6000819050919050565b7f4e487b7100000000000000000000000000000000000000000000000000000000600052602260045260246000fd5b7f4e487b7100000000000000000000000000000000000000000000000000000000600052604160045260246000fd5b600080fd5b600080fd5b600080fd5b600080fd5b6000601f19601f8301169050919050565b60008160601b9050919050565b610c2b81610a79565b8114610c3657600080fd5b50565b610c4281610a8b565b8114610c4d57600080fd5b50565b610c5981610ab5565b8114610c6457600080fd5b5056fea2646970667358221220cd83cafe4db0346b2939cc973ecf269f8642343fbd5e848eb3d5e692df8b1d6364736f6c63430008060033",
  "linkReferences": {},
  "deployedLinkReferences": {}
}